:020000040800F2
:100000001807002085020008791B00084119000824
:10001000751B0008610B0008891D00080000000026
:10002000000000000000000000000000811B00082C
:10003000650B0008000000007D1B0008851B000800
:100040009F0200089F0200089F0200089F0200080C
:100050009F0200089F0200089F0200089F020008FC
:100060009F0200089F0200089F0200089F020008EC
:100070009F0200089F0200089F0200089F020008DC
:100080009F0200089F0200089F0200089F020008CC
:100090009F0200089F0200089F0200089F020008BC
:1000A0009F0200089F0200089F0200089F020008AC
:1000B0009F0200089F0200089F0200089F0200089C
:1000C0009F0200089F0200089F0200089F0200088C
:1000D0009F0200089F0200089F0200089F0200087C
:1000E000690B00089F0200089F0200089F02000899
:1000F0009F0200089F0200089F0200089F0200085C
:100100009F0200089F0200089F0200089F0200084B
:100110009F0200089F0200089F0200089F0200083B
:100120009F0200089F0200089F0200089F0200082B
:100130009F02000800000000000000009F0200086D
:100140009F0200089F0200089F0200089F0200080B
:100150009F0200089F0200089F0200089F020008FB
:100160009F0200089F0200089F0200089F020008EB
:100170009F0200089F0200089F0200080000000084
:10018000000000009F0200080000000000000000C6
:100190009F02000800000000000000009F0200080D
:1001A0000000000000000000000000009F020008A6
:1001B0009F0200089F0200089F0200089F0200089B
:1001C0009F02000800F002F800F04CF80AA090E846
:1001D000000C82448344AAF10107DA4501D100F002
:1001E00041F8AFF2090EBAE80F0013F0010F18BF83
:1001F000FB1A43F0010318473C3C00005C3C000044
:10020000103A24BF78C878C1FAD8520724BF30C842
:1002100030C144BF04680C60704700000023002414
:1002200000250026103A28BF78C1FBD8520728BF06
:1002300030C148BF0B607047662903F00C857329F5
:1002400000F00F83002070471FB503F0F7FC00F0AB
:1002500011FB04000020002102F062FFE0601FBDDE
:1002600010B510BD00F007FC1146FFF7EDFF01F0DF
:100270008FFD00F025FC03B4FFF7F2FF03BC00F094
:1002800069FC00000948804709480047FEE7FEE78F
:10029000FEE7FEE7FEE7FEE7FEE7FEE7FEE7FEE736
:1002A00004480549054A064B70470000391C000800
:1002B000C5010008180100201807002018030020BD
:1002C0001803002053EA020C00F069802DE9F04B7E
:1002D0004FF00006002B1FBFB3FA83F503FA05F4B5
:1002E00024FA05F65E4012BF1643B2FA82F502FA0E
:1002F00005F4C5F120051EBF22FA05FC44EA0C04F2
:10030000203556EA044C4FEA144418BF641C4FF0E1
:1003100000084FF00009904271EB030C39D300291B
:1003200019BFB1FA81F701FA07F6B0FA80F700FABF
:1003300007F6C7F120071EBF20FA07FC46EA0C06A5
:100340002037B6FBF4FCA7EB0507103F07F01F0BA7
:10035000CBF120062CFA06F60CFA0BFB44BFB34691
:100360000026202FA4BF5E464FF0000B5BEA060C70
:1003700008BF4FF0010B19EB0B0948EB0608ABFB6C
:10038000027C06FB02CC0BFB03CCC01B71EB0C0107
:10039000C1E70B46024641464846BDE8F08B13B51F
:1003A000084318BF4FF0FF300146AFF30080BDE8AF
:1003B0001C40704770B50C460546012A05D02878C8
:1003C000800600D5EA69002302E0012305E05B1CFA
:1003D000934202D2E05C0028F9D1A869E618C01A5D
:1003E000A861286A184428622846AFF3008004E018
:1003F000D5E9012114F8010B9047B442F8D32846FF
:10040000AFF3008070BD70477047704710B500F0C3
:1004100035FA006810BD10B5044600F02FFA0460EC
:1004200010BD2DE9FF4F0C461E464FF0FF378BB035
:10043000D2E90001DDF860800A908A46C1F30A55CE
:1004400005B93D46002108464FF00000BAF1000F03
:1004500000F4400005DA00EB80004FF4400101EAAF
:1004600050004FEA9059B9F1010F00DDB9460A98E2
:1004700050EA4A000ED044F61050A5F2FF3545432D
:100480002F14B8F1000F1ED07542291E1EDDC9F1D0
:1004900000021CE0B8F1010F4FF0000001D0302144
:1004A00003E0F24305E02154401CB042FBDB304640
:1004B0000022002121540B99C1F80880C1E90020D5
:1004C0000FB0BDE8F08FBD1B6D1CDEE74A4600DAB9
:1004D000694206A800F05CFA06AB93E8070003AB9C
:1004E00083E8070050460A9901F0B6FD8DE8070041
:1004F000A0F500501F3800900398002D0ADD42F24D
:100500001F014A460844002303A90390684602F0ED
:100510001FF809E0A0F500504A461F38002303A940
:100520000390684602F029F88DE807000004000CEB
:1005300003D04FF0FF30410800E01046B8F1000F43
:1005400003D00022009215461EE0751E05D400F06F
:1005500099F9303262556D1EF9D5B3460122084330
:1005600002D000227F1C04E02078302801D1002234
:100570007F1E002A099784D01DE0112D07DA00F0B4
:1005800081F9303262556D1C50EA0102F5D1084301
:1005900002D00098C8B10EE00021681E05E0235C7F
:1005A000625C63542254401E491C8142F7DBAB4617
:1005B000A81B401E0990002004F80B000B98099A14
:1005C000C0F80880C0E9002B7AE711264FF0000838
:1005D00057E72DE9F04F88460446D21D22F0070167
:1005E00091B0D1E90001CDE90A0102F0FDF802461F
:1005F0000B98C00F01D02D2007E02068810701D59E
:100600002B2002E0202101EAC000032A099001D03A
:10061000072A05DB03464146204600F079F90BE145
:100620002078800601D5E06900E00620B8F1650F6A
:10063000814606D0B8F1660F18D0B8F1670F70D1B7
:1006400031E00020B9F1110F009001DB112301E02E
:1006500009F101030AAA01A90CA8FFF7E2FEDDE9EE
:100660000C70002609F10105834647E001204B4646
:1006700000904FF000470AAA01A90CA8FFF7D1FE8D
:10068000DDE90DB00C995D46002610B909F10100B5
:100690000D18B9EB050003D4C0F1FF3609F10105CF
:1006A000A5EB09002BE0B9F1010F01DA4FF00109C8
:1006B0000020B9F1110F0090484601DD112300E040
:1006C00003460AAA01A90CA8FFF7ABFEDDE90C70EE
:1006D0004D4600268346207800070AD4AB4500DA51
:1006E0005D4601A8012D04DD411911F8011C3029D6
:1006F00007D04F4502DA17F1040F04DA01208246D1
:100700000FE06D1EEEE7002F02DCED1B3E4403E020
:10071000781CA84200DD7D1CB81B00F1010A4FF0D7
:1007200000472078000703D4AA4501DB4FF0FF3AC9
:100730000021B7F1004F0DF143088DF8431024D08C
:1007400002202B23002F01DA7F422D230A21021ED3
:10075000A0F1010000DC5FB197FBF1FC97FBF1F227
:1007600001FB1C7C17460CF1300C08F801CDEEE7BC
:10077000A8F1010003702188090501D5452100E099
:100780006521A0F1010800F8011C09980FA9A1EB4F
:100790000807FF1D00B10120411901EBEA70A169B2
:1007A0003844081A401EA0612078C00602D42046B2
:1007B000AFF30080099828B1D4E901219047206A5D
:1007C000401C20622078C00622D52046AFF300806E
:1007D0001EE0002E04DBB34502DD01A8805D00E0D1
:1007E0003020D4E901219047206A401C2062761C09
:1007F000AAF101005FEA000A0AD100F03BF8C068E4
:100800000168405CD4E901219047206A401C2062C5
:10081000281EA5F10105DCDC07E0D4E9012118F868
:10082000010B9047206A401C2062381EA7F1010787
:10083000F3DC2046AFF30080032011B041E610B591
:10084000436913B1AFF3008001E0FFF7B3FD01206E
:1008500010BD127800F124010A7000224A700122B2
:10086000EDE711684FF0FF32E9E7000000487047FC
:1008700010000020004870473000002000487047FA
:100880001000002030B5B0F10A0271F100034FEA08
:10089000900E4EEA817EB0EB0E0061EB91014FEAC3
:1008A000101E4EEA017E10EB0E0041EB11114FEAD3
:1008B000102E4EEA016E10EB0E0041EB11214FEAB3
:1008C000104E4EEA014E10EB0E0041EB1141401864
:1008D00041F100014FEAD00040EA41704FEAD101F6
:1008E0004FEA810444EA907410EB800544EB010464
:1008F0006D1944EB0404521BA3414FF0000348BFA1
:100900000A3200D530BD401C41F1000130BD00006D
:100910002DE9F0411F46044603260168072A01F429
:10092000006004DB08B116A505E016A503E008B1D8
:1009300015A500E015A521F010002060A069C01EDB
:10094000A0610FB1401EA0612046AFF300804FB1FF
:10095000D4E9012138469047206A401C2062C01C1F
:10096000206206E0206AFAE7D4E9012115F8010BBC
:100970009047761EF8D22046AFF30080BDE8F081A4
:100980004E414E006E616E00494E4600696E660033
:100990002DE9F047814616468AB0354878440DC89F
:1009A0008DE80D0032487844801C03AC0DC884E803
:1009B0000D0041F69B300844372190FBF1F290FB8B
:1009C000F1F5A5F1800501FB12041B3C02D5644240
:1009D000012000E00020DFF898A080460027FA44BC
:1009E000AAF1BE0A0EE0E0070AD03246684607EBDD
:1009F000470101230AEB810101F0BFFD8DE80700EB
:100A000064107F1C002CEED1194F7F44AE3F19E0DB
:100A1000E80715D007EB04100DF1180A90E80E0056
:100A20008AE80E00C068F04201D198190890324659
:100A3000012306A903A801F0A0FD03AB83E807008A
:100A40006D10641C002DE3D14FF00103324669465E
:100A5000B8F1000F03A802D001F07AFD01E001F027
:100A60008CFDC9E90001C9F808200AB0BDE8F0878B
:100A70006434000070477546FFF7F8FEAE46050087
:100A80006946534620F00700854618B020B5FFF7A9
:100A900007FCBDE820404FF000064FF000074FF084
:100AA00000084FF0000BAC46ACE8C009ACE8C00948
:100AB000ACE8C009ACE8C00921F007018D467047D9
:100AC00010B50446AFF300802046BDE81040FFF7A4
:100AD000D2BB00000000000030B44FF0013C50F8E1
:100AE000042B51F8043BCCFA52F4D51A20D1FCB9AE
:100AF00050F8042B51F8043BCCFA52F4D51A17D114
:100B0000B4B950F8042B51F8043BCCFA52F4D51A7E
:100B10000ED16CB950F8042B51F8043BCCFA52F4C6
:100B2000D51A05D1002CDAD030BC4FF00000704748
:100B300029BAB1FA81F111F01801D1F120008440F5
:100B4000F2D1CA40CB4012F0FF0213F0FF0330BCD9
:100B5000D01A704701491820ABBEFEE726000200FC
:100B6000FEE70000704700004FF4005000F0AEB800
:100B700010B54379012B4FF002031DD003710368B8
:100B800002F0100ED3F800C0D1E9004140F6FE7229
:100B900002FA0EF221432CEA020201FA0EF111438D
:100BA0001960C0211A6801FA0EF122EA01011960E8
:100BB0000121002301714371184610BD002804BFB4
:100BC0000120704710B50446007920B900206071FB
:100BD000204600F007F8022020710020012120614A
:100BE000217110BD80B586B047F200410068C4F2A3
:100BF0000001002288420592049201D006B080BD17
:100C000043F630000092C4F20200036943F000533F
:100C10000361036903F000530093009B0092036893
:100C200043F001030360006800F0010000900098A9
:100C3000102001900320CDE9020201F5C63001A980
:100C400000F050F806B080BD81B04FF0000CCDF838
:100C500000C00068002900900098104414BF1430B0
:100C600008300090009900200B6001B07047000030
:100C700010B54279012A4FF0020223D002710268B6
:100C800001F0100E4FF0010C14680CFA0EF3234320
:100C90001360D2F800C049B13C230CF4701103FA80
:100CA0000EF399420AD1022105E000BF0CF03C018D
:100CB0003C2903D1012153681943516001210022CD
:100CC00001714271104610BD7047000043F6144197
:100CD000C4F201010A68024214BF08607047FFF7BE
:100CE000F3BF00002DE9F04F82B000F13E4241F623
:100CF000000502F1FF77C4F2020507224FEAB7268A
:100D0000A84208BF0622062E38BF4FEAB7224FF08E
:100D1000010A002400274FF00008009208E000BFFD
:100D2000023708F10108202F04F1040400F0B48018
:100D30000E680AFA08F916EA090FF1D0D1F804A0F2
:100D40000AF0030BABF10106012E17D803228668C7
:100D500002FA07FECA6826EA0E06BA4032438260EB
:100D60004268CAF3001522EA090205FA08F54FEABB
:100D7000480C6FEA0E062A4342600BE00322BA4099
:100D8000D643BBF1030FBC4604D1BC464FF0030B66
:100D900022E000BFC2688D68324005FA0CF52A4394
:100DA000BBF1020FC26017D16FF0030202EA5802D2
:100DB000024404F01C030F25D2F820E005FA03FAE0
:100DC0000D692EEA0A0E05FA03F343EA0E031362D5
:100DD000D1F804A00AF0030B02680BFA0CF33240BE
:100DE0001A431AF4403F4FF0010A026098D00022E3
:100DF00043F644030192C4F202031A6843F6004E1C
:100E000042F480421A601A68C4F2010E02F4804271
:100E10000192019A28F003024FF6084C7244CFF673
:100E2000FF7C52F80C3004F00C060F25B540AB43A4
:100E3000009D05FA06F6334342F80C30DEF8082030
:100E40004B6842EA090643F60C4CDD0258BF22EA21
:100E50000906CEF80860C4F2010CDCF800209D02FF
:100E600042EA090658BF22EA0906CCF80060DEF81B
:100E700004209D0342EA090658BF22EA0906CEF87B
:100E80000460DEF80020DB0342EA090658BF22EACC
:100E90000906CEF8006043E702B0BDE8F08F00001D
:100EA000002A08BF090481617047000040F2101059
:100EB000C2F200000068704740F2000040F21011DA
:100EC000C2F20000C2F2000100780A681044086013
:100ED0007047000080B543F60040C4F2020001688C
:100EE00041F400710160016841F4806101600168B2
:100EF00041F480710160032000F084F8002000F0CC
:100F000005F800F027F8002080BD000070B540F221
:100F10000006C2F2000640F208013278C2F2000177
:100F20004FF47A730968B3FBF2F20446B1FBF2F1B5
:100F3000084600F079FB0F2C4FF0010508D838B9AE
:100F40004FF0FF3021460022002500F02FF874609A
:100F5000284670BD82B0002043F640010190C4F2E3
:100F600002014A6842F480424A604A6802F48042C0
:100F70000192019A0090086840F08050086008686B
:100F800000F080500090009802B07047002848BFE1
:100F9000704700F01F01012202FA01F14EF2001227
:100FA0004009CEF2000242F82010704710B54EF60C
:100FB0000C5CCEF2000CDCF80030C3F3022E8EF095
:100FC0000704042C28BF0424BEF103034FF0FF3EA6
:100FD0000EFA04F438BF0023A14399400EFA03F33C
:100FE0009A43114300F00F02043A624409010C32A3
:100FF00000F16043B0F1FF3FC8BF03F564421170D8
:1010000010BD00004EF60C51CEF200010A684FF6FA
:10101000FF031A4060F30A2242F0806040F0FD7046
:10102000086070472DE9F041002800F08B8043F6FE
:101030000808C4F202080446D8F8F8030D4600F088
:101040000F00884207D288F8F853D8F8F80300F068
:101050000F00A84276D12068810717D5410705D532
:10106000D8F8001041F4E051C8F80010010705D588
:10107000D8F8001041F46041C8F80010D8F800100A
:10108000A26821F0F0011143C8F80010C0073FD159
:10109000D8F8F80300F00F00A84207D988F8F853F1
:1010A000D8F8F80300F00F00A8424BD120684107A0
:1010B00007D5D8F80010E26821F4E0511143C8F8D0
:1010C0000010000708D5D8F80000216920F460401E
:1010D00040EAC100C8F8000000F07CF8D8F8001021
:1010E00043F61C62C1F30311C0F60002515C40F2EA
:1010F000080220FA01F140F20400C2F20000006888
:10110000C2F200021160FFF701FF0020BDE8F0818C
:101110006068811E022907D258F8081C89015CBF4B
:101120000120BDE8F08111E0012807D158F8081C22
:1011300089035CBF0120BDE8F08107E058F8081C76
:10114000890703D40120BDE8F08100BFD8F8001062
:1011500021F003010843C8F80000FFF7A7FE064688
:1011600041F28837D8F80000616800F00C00B0EB5D
:10117000810F8DD0FFF79AFE801BB842F2D9032071
:10118000BDE8F08140F2080043F60801C2F2000019
:10119000C4F202010068096843F62C62C1F382219F
:1011A000C0F60002515CC8407047000040F20800E1
:1011B00043F60801C2F20000C4F2020100680968A7
:1011C00043F62C62C1F34231C0F60002515CC840C4
:1011D0007047000010B543F60404C4F202046068CE
:1011E000C0F3810142F20040C0F2F400DFE801F0F8
:1011F0004402081841F20020C0F27A0010BD00BF7E
:10120000216801F03F02216823684902C3F3881175
:1012100016D4A1FB00010023FFF754F817E000BF2C
:10122000216801F03F02216823684902C3F3881155
:1012300016D4A1FB00010023FFF744F817E000BF1C
:1012400041F20020C0F27A004843B0FBF2F021687E
:101250000222C1F3014102EB4101B0FBF1F010BDEC
:1012600041F20020C0F27A004843B0FBF2F021685E
:10127000C1F30271B0FBF1F010BD00002DE9F041A7
:1012800082B0002800F096800446007843F60006FD
:10129000C007C4F202062BD0B06800F00C0004288E
:1012A00020D0B06800F00C00082802D1706840021D
:1012B00018D4B06800F00C000C2802D1706840020D
:1012C00010D46068B0F5803F07D0B0F5A02F40F093
:1012D0003B81306840F480203060306840F48030DA
:1012E00030603BE13068800302D56068002861D03F
:1012F0002078800722D5B06810F00C0F11D0B068AC
:1013000000F00C00082802D17068400209D5B068CE
:1013100000F00C000C2840F09F807068400200F143
:101320009B803068800702D5E068012842D1306890
:10133000216920F0F80040EAC10030602078000701
:101340003CD42078400751D4A5698DB3B06800F033
:101350000C00082840F0A880012D2BD07068E169AE
:1013600000F480028A4225D1216A00F03F028A42BD
:1013700020D147F6C071626A0140B1EB821F19D1DA
:10138000A26A0023CFF6FF7303EBC23200F44031B0
:101390006FF30F0291420DD1E16A00F07062B2EB7F
:1013A000016F07D1216B00F0E040B0EB017F01D16C
:1013B000002035E1012002B0BDE8F081606900281D
:1013C00040F20000C4F247205ED00121C0F8801E28
:1013D000FFF76CFD054600BF706F8007B1D4FFF7C3
:1013E00065FD401B0228F7D9C5E000BF306C10F046
:1013F00080580AD100200190306C40F08050306459
:10140000306C00F080500190019847F20007C4F260
:1014100000073868C00511D4386840F4807038601F
:10142000FFF744FD054600BF3868C00506D4FFF746
:101430003DFD401B0228F7D99DE000BFA0680128B0
:1014400005D0052852D1306F40F004003067306F6E
:1014500040F00100306753E0E068002860D00020D1
:10146000C4F2472001210160FFF720FD054600BFBF
:10147000306880073FF55BAFFFF718FD401B02287F
:101480004FF00300F4D9CBE00021C0F8801EFFF735
:101490000DFD0546706F80077FF553AFFFF706FD22
:1014A000401B0228F6D966E00027C4F24727002037
:1014B0003866FFF7FBFC022D05460BD13068800132
:1014C0005ED5FFF7F3FC401B02284FF00300F5D96F
:1014D000A6E000BF306880017FF56AAFFFF7E6FC49
:1014E000401B02284FF00300F4D999E0316F002827
:1014F00021F001013167316F21F00401316765D0BE
:10150000FFF7D4FC054641F2883700BF306F8007F3
:101510006ED4FFF7CBFC401BB842F7D92BE000BFDD
:101520000020C4F2472000210160FFF7BFFC054600
:10153000306880077FF502AFFFF7B8FC401B022838
:101540004FF00300F4D96BE03168002821F48031BA
:101550003160316821F48021316053D0FFF7A6FC5F
:10156000054600BF306880033FF5C2AEFFF79EFC22
:10157000401B6428F6D9032002B0BDE8F08100BF0B
:1015800004F11C052FCD246B08430021CFF6FF7119
:1015900040EA821001EBC3316FF30F0140EA0560AE
:1015A000084340EA0470706001203866FFF77EFC53
:1015B000044600BF306880013FF5FAAEFFF776FCC5
:1015C000001B02284FF00300F4D929E0FFF76EFC5E
:1015D000054641F2883700BF306F800708D5FFF716
:1015E00065FC401BB8424FF00300F5D918E000BF7E
:1015F000B8F1000F7FF4A8AE306C20F0805030645A
:10160000A2E600BFFFF752FC0546306880037FF575
:101610006FAEFFF74BFC401B64284FF00300F4D97A
:1016200002B0BDE8F0810000411E0020B0EB116F58
:101630001CBF012070474EF21002CEF20002516032
:101640004EF62351CEF20001F0230B70072190607B
:101650001160704710B590F83C20012A4FF002024B
:1016600051D080F83D200268D2F804E0D2F808C0DA
:101670000C682EF07003234341F2FF74C4F200049F
:10168000A24253600EDC40F2FF73C4F200039A42A0
:1016900016DCB2F1804F2BD040F20043C4F20003BD
:1016A00024E000BF40F2FF33C4F201039A4213DC8E
:1016B00041F60003C4F200039A4219D0002313E05C
:1016C00040F60003C4F200039A4211D040F60043F2
:1016D000C4F200030AE000BF44F20003C4F20103B5
:1016E0009A4205D040F20043C4F201039A4204D169
:1016F00049682CF08003194391600121002280F891
:101700003D1080F83C20104610BD0000002804BFAA
:101710000120704710B5044690F83D0028B900201C
:1017200084F83C00204600F01FF8022084F83D00B9
:101730002068211D00F08AFA012084F8460084F810
:101740003E0084F83F0084F8400084F8410084F8AB
:10175000420084F8430084F8440084F8450084F88B
:101760003D00002010BD000081B0006841F2000182
:10177000C4F20001884201D001B0704700200090FF
:1017800043F64000C4F20200016841F0100101601C
:10179000006800F010000090009801B07047000051
:1017A000002804BF0120704770B5044690F83D0042
:1017B00028B9002084F83C00204600F06DF8022093
:1017C00084F83D002068D4E902C2D4F810E0C5686E
:1017D00004F1180625F00C05C56005694ACE25F40C
:1017E0007C55294319433143114341F400610161A0
:1017F000C16849F20C629143626941EA0C0141EA15
:101800000E01114341F40041C160416941F20043BE
:1018100040F48062C4F2010321F440719A424161B4
:1018200002D1FFF7C3FC01E0FFF7ACFCD4E90053A1
:101830001921A0FB01015A00DB0FFEF743FD48F21E
:101840001F51C5F2EB11A0FB01235A096FF063038E
:1018500002FB0300322303EBC000A0FB01014FF4A5
:10186000F87000EA111000EB0210C1F342110844B5
:10187000A8602869012120F480402861686920F06F
:101880002A006861E86840F40050E86000202064A5
:1018900084F83D1070BD00002DE9F04385B000686C
:1018A00044F60005C4F20005A84203D005B0BDE827
:1018B000F08300BF002643F630000096C4F2020019
:1018C00001696C4641F48021016101694FF0020811
:1018D00001F4802100910099009601684FF00309FE
:1018E00041F0020101600168072701F00201009147
:1018F00000990096016841F00801016000682146E6
:1019000000F00800009000984FF48050009005F51A
:10191000DE30CDE90186CDF80C900497FFF7E2F9AF
:101920004FF44070CDE9000805F5E2302146CDE9DD
:1019300002690497FFF7D6F905B0BDE8F08300000F
:10194000FEE7000080B582B00020CDE9000040F243
:10195000700047F20041C2F20000C4F200010160D1
:10196000FFF72CF920B1EFF3108072B6FEE700BF4D
:1019700040F27000C2F2000069460022FFF7F8F85A
:1019800020B1EFF3108072B6FEE700BF02B080BD59
:101990002DE9F04786B0002743F63000CDE9047703
:1019A0000097C4F20200016841F6000A41F0040108
:1019B00001600168C4F2020A01F00401009100997B
:1019C00000970168AAF5A05641F080010160016806
:1019D000002201F08001009100990097016844F213
:1019E000810841F001010160016801F001010091ED
:1019F00000990097016841F002010160016801F05F
:101A00000201009100990097016841F0080101600E
:101A1000016801F00801009100990097016841F008
:101A200040010160006844F2810100F04000009034
:101A300000983046FFF734FA5046402100224FF01C
:101A40004009FFF72DFA4FF4005001904FF4881031
:101A500001ADCDE90207AAF580502946FFF742F90A
:101A6000012430462946CDF80480CDE90247049789
:101A7000FFF738F950462946CDE90194CDE90377BF
:101A8000FFF730F98020CDE901075046294603973A
:101A9000FFF728F94FF4E85001900220CDE9020742
:101AA000032004900A20AAF5C05405902046294638
:101AB000FFF718F94FF40070CDE9010720462946D9
:101AC0000397FFF70FF9282000210022FFF76EFA95
:101AD0002820FFF75BFA06B0BDE8F08780B582B03A
:101AE00040F2840041F200020021C2F20000C4F280
:101AF00000024FF6FF73CDE90011C0E90021C0E9F3
:101B000002138161FFF702FE20B1EFF3108072B67D
:101B1000FEE700BF40F28400C2F200006946FFF712
:101B200099FD28B1EFF3108072B600BFFEE700BF49
:101B300002B080BD80B540F2CC0044F60001C2F294
:101B40000000C4F2000100234FF00C0C4FF41642C9
:101B500080E80E00C0E90333C0E905C3C0E90733DC
:101B6000FFF71EFE002808BF80BDEFF3108072B69D
:101B7000FEE70000FEE70000FEE7000070470000FF
:101B800070470000FFF798B9B0B594B0002443F651
:101B900040000C94CDE90A44CDE908440694CDE90F
:101BA0000444CDE902440194C4F202000168012218
:101BB00041F0805101600068022500F080500190E2
:101BC000019847F200000194C4F20000016862F33A
:101BD0008F310160006800F44040019001981020AE
:101BE0000B9008200F906420CDE9100507A80795F9
:101BF0000A92CDE90D54CDE91255FFF73FFB28B10C
:101C0000EFF3108072B600BFFEE700BF0F20CDE9F2
:101C100002054FF4A05005904FF48050069002A8A2
:101C200003210494FFF7FEF920B1EFF3108072B6A0
:101C3000FEE700BF14B0B0BD4EF68850CEF20000F3
:101C4000016841F4700101607047000010B540F672
:101C5000FF3E0368C4F2000E40F2004C7045C4F22F
:101C6000010C27DCB0F1804F31D040F20042C4F2C9
:101C7000000290422BD040F60002C4F200029042D3
:101C800025D041F6FF72C4F20002904229DC704573
:101C90003CDCB0F1804F5FD040F20042C4F2000261
:101CA000904259D040F60002C4F20002904253D054
:101CB00056E000BF40F60042C4F20002904206D057
:101CC000604504D00022C4F201029042D9D14A6892
:101CD00023F07003134341F6FF72C4F200029042F6
:101CE000D5DD43F6FF72C4F20102904222DC42F2DB
:101CF0000002C4F2000290422ED00022C4F201027F
:101D0000904229D0604527D02AE000BF40F600422B
:101D1000C4F2000290421FD041F60002C4F2000259
:101D2000904219D041F60042C4F20002904213D012
:101D300016E000BF44F20002C4F2010290420BD050
:101D400044F60002C4F20102904205D044F200427F
:101D5000C4F20102904203D1CA6823F440731343D2
:101D600023F080024B69D1F800E08C681A430260CE
:101D7000C46240F48062C0F828E0624504BF09698B
:101D800001630121416110BDFEE700000000000079
:101D90008CB0FFF79FF8FFF7F7FEFFF7F9FDFFF7AD
:101DA000D1FDFFF79BFEFFF7C5FEFFF7CBFD40F22D
:101DB0007004C2F200042046FEF700FF2046002116
:101DC000FEF756FF9FED880B9FED891B55EC108B9E
:101DD0009FED890B50EC116B9FED891B0B9051EC23
:101DE000100B9FED890BCDE9091051EC110B9FED04
:101DF000881BCDE9071051EC100B9FED870BCDE947
:101E0000051051EC110B9FED869B9FED87CB9FED4D
:101E100088DB9FED89EB9FED8AFB9FED8BABCDE9D6
:101E2000031051EC100BCDE9011000BF9FED6C8B3E
:101E3000B0EE480AF0EE680A00F0EEFC59EC18AB80
:101E4000B0EE4ABAB0EE4FAAB0EE4EFAB0EE4DEA9E
:101E5000B0EE4CDAB0EE49CAB0EE409A5046494670
:101E600052464B46F0EE6ABAF0EE6FAAF0EE6EFA0A
:101E7000F0EE6DEAF0EE6CDAF0EE69CAF0EE609A20
:101E800001F070F941EC100B00F0C6FC51EC100BA6
:101E900042462B4601F0B0FC53EC192BB0EE4C9AA5
:101EA000B0EE4DCAB0EE4EDAB0EE4FEAB0EE4AFAFE
:101EB000B0EE4BAAF0EE6C9AF0EE6DCAF0EE6EDA70
:101EC000F0EE6FEAF0EE6AFAF0EE6BAA9FED60BBFF
:101ED00001F048F90B9B0746AB4625460C46504699
:101EE0004946324601F088FC41EC100B00F094FCAE
:101EF000DDE9093251EC100B01F07EFC3A46234635
:101F000001F030F9DDE9073204460F4650464946F4
:101F100001F072FC41EC100B00F07EFCDDE90532B3
:101F200051EC100B01F068FC22463B4601F01AF917
:101F3000DDE9033204460F465046494601F05CFC99
:101F400041EC100B00F068FCDDE9013251EC100BA4
:101F500001F052FC22463B462C465D4601F002F958
:101F600007468B4653EC192B5046494601F044FC7A
:101F700041EC100B00F050FC51EC100B53EC1C2BFF
:101F800001F03AFC3A465B4601F0ECF853EC1D2BAD
:101F900001F032FC42462B4601F0E4F853EC1E2BD4
:101FA00001F02AFC53EC1F2B01F0DCF801F054FB8C
:101FB0000346204600210022FEF746FE53EC1A2B72
:101FC0005046494601F0CEF853EC1B2B41EC180B60
:101FD00001F018FE00283FF42BAF27E700BF00BF39
:101FE0001F85EB51B81E1940000000000000E03FC3
:101FF0000000000000000840555555555555D53F87
:102000000000000000001040000000000000D03F71
:1020100000000000000014409A9999999999C93FCD
:102020000000000000001840555555555555C53F56
:10203000998AE79AD561D4BF000000000000804073
:1020400000000000002083407B14AE47E17A843F0B
:102050001F85EB51B81E29405FEA400C08BF91F084
:10206000000F4FEA8C234FEAC12243EA51514FEA55
:102070001C5018BF00F5F0404FEA300018BF41F087
:1020800000415FEA6C5C00F02980BCF1FF3F08BFB3
:1020900040F080407047130C06BF12044FF0100C44
:1020A0004FF0000C130E04BF12020CF1080C130FBA
:1020B00004BF12010CF1040C930F04BF92000CF149
:1020C000020CD30F04BF52000CF1010C11464FF06B
:1020D0000002A0F11F00A0EB0C00704711F0004FB0
:1020E00008BF704731F000413FF4D5AF0B0C06BF7D
:1020F00009044FF0100C4FF0000C0B0E04BF090246
:102100000CF1080C0B0F04BF09010CF1040C8B0F30
:1021100004BF89000CF1020CCB0F04BF49000CF185
:10212000010CCCF1200322FA03F341EA030102FA85
:102130000CF2A0EB0C0000F10100704723F07F4788
:1021400020F07F4C80EA030000F00040ACEB070376
:1021500003F57C5303F1FF032DE9804909B44FEAED
:10216000144324EA03484FEA154B25EA0B4E0FF2BD
:10217000042606EB13273E7803FB0667C7F5000726
:1021800007FB06F64FEAD64606F102064FEA543739
:1021900007FB066CCCF1005C4FEA1C472CEA074CAD
:1021A0000CFB06F507FB06F404EB15464FEA961602
:1021B00049085FEA320234BF00204FF000404FEA86
:1021C000D13706FB07FC4FEA1C4C0CFB0BF7D21B6C
:1021D00003FB0CF761EB07010CFB0EF7B0EB0740BC
:1021E00072EB17420CFB08F734BFA2EB0742B2EBCD
:1021F000074261EB17414FEA0C444FEA910706FB97
:1022000007FC4FEA1C4C0CFB0BF7B0EBC74072EB22
:10221000573203FB0CF734BFA2EBC742B2EBC74205
:1022200061EB57310CFB0EF7B0EBC70072EB577246
:102230000CFB08F734BFA2EBC702B2EBC70261EB9D
:1022400057714FEA816141EA92114FEA826242EA94
:1022500090124FEA806004EBCC04039F4FEAD13721
:1022600006FB07FC4FEA1C4C0CFB0BF7D21B03FBD5
:102270000CF761EB07010CFB0EF7B0EB074072EBBC
:1022800017420CFB08F734BFA2EB0742B2EB074240
:1022900061EB17414FEA8C5504EB9C244FEA910700
:1022A00006FB07FC4FEA1C4C0CFB0BF7B0EBC740DE
:1022B00072EB573203FB0CF734BFA2EBC742B2EB11
:1022C000C74261EB57310CFB0EF7B0EBC70072EB66
:1022D00057720CFB08F734BFA2EBC702B2EBC70280
:1022E00061EB57714FEA816141EA92114FEA8262D4
:1022F00042EA90124FEA806015EB4C2544F100044D
:102300004FEAD13706FB07FC4FEA1C4C0CFB0BF7DE
:10231000D21B03FB0CF761EB07010CFB0EF7B0EBD4
:10232000074072EB17420CFB08F734BFA2EB0742E1
:10233000B2EB074261EB17414FEA813141EA92412A
:102340004FEA823242EA90424FEA80304FEA0C76FE
:1023500015EB1C1544F1000448EA03434EEA0B4810
:102360004FF0000EB2EB080C71EB030724BF62467E
:1023700039464EEB0E0E4FF0000B0018524149410A
:102380004BEB0B0BB2EB080C71EB03077BF1000B73
:1023900024BF624639464EEB0E0E4FF0000B00187C
:1023A000524149414BEB0B0BB2EB080C71EB0307AD
:1023B0007BF1000B24BF624639464EEB0E0E51EA0C
:1023C000020718BF46F0010616EB0E7655F1000223
:1023D00054F1000103D5BDE88901BDE80088BDE8DE
:1023E0008901BDE80048B619524141EB0101A3F152
:1023F0000103704780807F7E7D7C7B7A7978777659
:1024000076757473727171706F6E6E6D6C6C6B6AD1
:102410006A6968686766666564646363626161606F
:10242000605F5F5E5E5D5D5C5C5B5B5A5A595958EC
:102430005857575656555555545453535252525156
:10244000515050504F4F4F4E4E4D4D4D4C4C4C4BAC
:102450004B4B4A4A4A4949494848484747474746F3
:10246000464645454544444444434343434242422F
:10247000424141419C46002B30D477002BD04FEA9B
:1024800037071CB503B44FF010004FF01001BAF13C
:10249000000F06D0BCF1000FDCBF40F0080040F098
:1024A00008014FF000000FBCBDE810400BF1010B1C
:1024B000BBF1010F08BF5FEA170722BF12F101024B
:1024C00011F101014FF0004143F1000300F0004021
:1024D00043EA00007047F9D35708D0E746EA0646BA
:1024E0004FEA164613F1400F1FDD13F1200FDFBF37
:1024F00016430A46002120335B42BED0C3F12007B9
:1025000046EA06464FEA164602FA07F746EA070683
:1025100022FA03F2C3F1200701FA07F742EA0702A1
:1025200021FA03F14FF00003A7E746EA020646EA64
:1025300006464FEA164646EA0106BCBF46EA06468C
:10254000360C4FF000034FF000024FF0000194E70B
:102550002DE9804C70B49A46934691E8380007C83C
:1025600031EA400C48BF34EA430C03D5FFF7E6FDDF
:10257000FFF780FFF0BCBDE8008C2DE9804C70B403
:102580009A46934691E8380007C810F0804F08BF7C
:1025900013F0804F03D100F005F8FFF76BFFF0BC9C
:1025A000BDE8008C20F07F4723F07F4C80EA0300D9
:1025B00000F0004007EB0C03A3F57C53A3F1FE03EE
:1025C00092F0000F00F0B38095F0000F00F07780DC
:1025D0002DE901494FEA114021EA00484FEA14462B
:1025E00024EA064700FB06FC08FB06F607FB08F892
:1025F00018EB06484CEB164C00FB07F718EB0748A6
:102600004CEB17404FEA124B22EA0B4E4FEA1546AD
:1026100025EA06470BFB06FC0EFB06F607FB0EFE43
:102620001EEB064E4CEB164C0BFB07F71EEB074E52
:102630004CEB174B18EB0B0840F1000018EB0E0B9E
:1026400058EB000840F100008F1A4FF000014FF0E6
:1026500000063CBFC943661B14BFB5EB040C002148
:102660003CBFC943F61B4FEA174427EA04454FEA2B
:102670001C472CEA074C04FB076205FB07F70CFB21
:1026800005F616EB074642EB174204FB0CFC16EB73
:102690000C4642EB1C421BEB060658EB0202414182
:1026A0004EEA8E0E46EA9E0601D5BDE80189B619AE
:1026B000524141EB0101A3F10103BDE801894FEA59
:1026C000144524EA05464FEA114721EA074C05FB69
:1026D00007F406FB07F70CFB06F111EB074144EB8F
:1026E000174405FB0CFC11EB0C4144EB1C444FEA76
:1026F000124722EA074C05FB07F206FB07F70CFB23
:1027000006F616EB074642EB174205FB0CFC16EBF0
:102710000C4642EB1C456A1854F1000148BF704753
:10272000B619524141EB0101A3F10103704795F045
:10273000000F37D04FEA114221EA02464FEA144710
:1027400024EA074C02FB07F106FB07F70CFB06F433
:1027500014EB074441EB174102FB0CFC14EB0C4457
:1027600041EB1C414FEA154725EA074C02FB07F5F0
:1027700006FB07F70CFB06F616EB074645EB17457D
:1027800002FB0CFC16EB0C4645EB1C42121951F1F6
:10279000000148BF7047B619524141EB0101A3F156
:1027A000010370474FEA144524EA05464FEA1147F2
:1027B00021EA074C05FB07F106FB07F70CFB06F2C5
:1027C00012EB074241EB174105FB0CFC12EB0C42EC
:1027D00051EB1C414FF0000648BF7047921841EB87
:1027E0000101A3F10103704703B40198410000986F
:1027F00050EAC12018BF04204A0D18BF40F0010064
:1028000040F2FF72B2EB515F08BF40F002000128B6
:1028100008BF052002B0704710B52F499FED2C1B53
:102820002DED020B84B0059820F000408842DCBFFB
:1028300000209DED040B32DD2849884209D104981F
:1028400040B94FF00100FDF7E6FD00F03DFC06B099
:1028500010BD05DB9DED040B00F02AFC06B010BD99
:1028600068469DED040B00F03BF810F0030011D01A
:10287000012818D09DED021B9DED000B02281AD0F7
:1028800000F04AFA51EC100B00F060FC06B041EC8D
:10289000100B10BD9DED021B9DED000B012000F003
:1028A0006FFB06B010BD9DED021B9DED000B00F00F
:1028B00033FA06B010BD012000F062FB51EC100BA2
:1028C00000F044FC06B041EC100B10BD000000000D
:1028D0000000000000000000FB21E93F0000F07F45
:1028E0002DE9F14F04462DED020B2DED088B8AB03A
:1028F0009FEDE70B80ED020B139EE74826F00045A5
:1029000085420ADC9DED120B002084ED000B0AB01D
:10291000BDEC088B03B0BDE8F08FE0489FEDE0AB65
:102920009FEDE1BBA84247DDE14F9FEDE39B9FEDAB
:10293000E48B9DED120B53EC1A2B51EC100B002E77
:102940001CDD01F063F841EC100BBD4208D053ECE4
:102950001B2B51EC100B01F059F8C4E900010BE0FE
:1029600053EC192B51EC100B01F050F853EC182BD1
:1029700001F04CF8C4E900010120C8E700F0F2FBC7
:1029800041EC100BBD4208D053EC1B2B51EC100B4B
:1029900000F0E8FBC4E900010BE053EC192B51EC0B
:1029A000100B00F0DFFB53EC182B00F0DBFBC4E94D
:1029B00000014FF0FF30AAE7C348A84279DB9DED44
:1029C000120B51EC100B00F09FFB41EC180B9FED2C
:1029D000C00B53EC102B00F00FFF9FEDBF1B53EC0F
:1029E000112B00F0BFFB00F007FE074600F061FE70
:1029F00041EC190B53EC1A2B00F0FEFE53EC182B94
:102A000000F0F8FF41EC180B53EC1B2B51EC190BA9
:102A100000F0F2FEDFF8C8A241EC100B4FEA1558A7
:102A20000125FA4453EC102B51EC180B00F0EEFF8B
:102A3000032DC4E900013DD0C1F30A5005EB451157
:102A4000A8EB00001139814234DA0AEB051BB0EE25
:102A500048AA9BED000BF0EE68AA53EC102B51EC4A
:102A6000190B00F0C9FE41EC1B0B51EC1A0B53EC97
:102A70001B2B00F0CBFF41EC180B51EC1A0B53EC65
:102A8000182B00F0C3FF53EC1B2B00F0BFFF9BED96
:102A9000020B41EC1A0B53EC102B51EC190B00F00C
:102AA000ABFE53EC1A2B00F0B1FF41EC100B6D1C88
:102AB000B8E70EE0002EA8BF3846BFF628AF94ED69
:102AC000000B51EC100B00F041FBC4E9000178420F
:102AD0001DE7C6F3130040F4801EC6F30A50A0F2AF
:102AE000F530471100F01F05C5F12000DDF848B0B2
:102AF00008900020069007900520EC467949002DAB
:102B000007EB0002794408BF51F8221009D051F8B0
:102B1000223001EB8201AB404A68089922FA01F1A8
:102B20001943A1FB0E26A1FB0B131A449A4234BF92
:102B30000123002303EB06080CEB8003D3E901A675
:102B40000E448E4234BF0121002192448A4411B1C7
:102B5000924502D903E0924501D2012100E0002113
:102B6000C3E901A641444CF82010011EA0F1010068
:102B7000C4DC029800F10050850F0298DDE903677C
:102B80008000DDF8148000F094FD41EC1A0B304613
:102B900000F0A6FD9FED541B53EC112B00F02CFE12
:102BA00041EC1B0B384600F09BFD9FED511B53EC95
:102BB000112B00F021FE41EC180B404600F090FD77
:102BC0009FED4D1B53EC112B00F016FE41EC190B41
:102BD00051EC180B53EC192B00F0C4FA53EC1B2BDF
:102BE00000F0C0FA53EC1A2B00F0BCFACDE9080152
:102BF000002008909DED080B53EC1A2B51EC100BA4
:102C000000F004FF53EC1B2B00F000FF53EC182BDB
:102C100000F0FCFE53EC192B00F0ECFE9FED381B8E
:102C200053EC112B00F0E8FD9FED370B41EC180B36
:102C300053EC102B9DED080B51EC100B00F0DCFD5C
:102C400053EC182B00F08EFA9FED310B41EC180B72
:102C500053EC102B9DED080B51EC100B00F0CCFD4C
:102C600053EC182B00F07EFA41EC100B139810F087
:102C7000004F06D06D4251EC100B00F067FA41ECAA
:102C8000100B284684ED000B41E600000000000018
:102C90000000000000000000FB21E93F7CD9024059
:102CA00000004054FB21F93F3163621A61B4D03D0A
:102CB000FB21F93F000000000000601A61B4D03D24
:102CC0007370032E8A19A33BFB21394100000000D9
:102CD00083C8C96D305FE43F000000000000E03FA2
:102CE0006A120000B8110000000000000000103E51
:102CF000000000000000103C000000000000103A3E
:102D0000182D4454FB21F93D3326A611460B113CE6
:102D100000000054FB21F93D10B52DED040B2DED05
:102D2000088B82B0B0EE419AF0EE619A0B9820F0D9
:102D300000449FED4BABB4F1795F11DA9DED0A0BC6
:102D400051EC100B00F058FC002801BFB0EE4A0A0D
:102D5000F0EE6A0A02B0BDEC088B04BF04B010BDEF
:102D60009DED0A0B53EC102B51EC100B00F044FDC1
:102D700041EC180B3C480621B0EE480AF0EE680A18
:102D8000784400F081F853EC182B51EC100B00F054
:102D900033FD9DED0A0B41EC1B0B53EC192B51EC51
:102DA000100B00F029FD41EC190B53EC1B2B51ECDF
:102DB000180B00F021FD53EC192B00F027FE9FEDBE
:102DC0002C0B41EC190B53EC102B51EC180B00F0B1
:102DD00013FD41EC100B2848844210DA53EC192BF8
:102DE00051EC100B00F012FE53EC1A2B00F002FE17
:102DF00041EC100B02B0BDEC088B04B010BD1F48B5
:102E0000A042BCBF9FED1E1B8DED001B06DBA4F591
:102E100000100190002000909DED001B51EC100B64
:102E200053EC112B00F0F2FD9DED000B41EC180B63
:102E300053EC102B51EC1A0B00F0E8FD41EC1A0B8F
:102E400053EC192B51EC180B00F0E0FD53EC1A2B4E
:102E500000F0D0FD41EC100BCCE7000000000000BA
:102E6000000000000000F03FDC0E00000000000049
:102E7000000000000000E03F3333D33F0000E93F93
:102E8000000000000000D23F70B504462DED028B1B
:102E90004D1E00EBC500B0EE408AF0EE608A90ED6A
:102EA000000B35F0060017D053EC182B51EC100B2B
:102EB00000F0A2FC41EC100B6D1E04EBC50090ED80
:102EC000001B51EC100B53EC112B00F04BF941ECB3
:102ED000100B35F00600E7D1022D36D0042D1CD0A2
:102EE000062D1CBFBDEC028B70BD53EC182B51ECB2
:102EF000100B00F081FC94ED0A1B53EC112B00F039
:102F000031F953EC182B00F077FC94ED081B53ECCF
:102F1000112B00F027F941EC100B53EC182B51EC5E
:102F2000100B00F069FC94ED061B53EC112B00F024
:102F300019F953EC182B00F05FFC94ED040B53ECE3
:102F4000102B00F00FF941EC100B53EC182B51EC47
:102F5000100B00F051FC94ED021B53EC112B00F010
:102F600001F953EC182B00F047FC94ED001B53ECD7
:102F7000112B00F0F7F8BDEC028B41EC100B70BD8B
:102F800031B504462DED040B2DED0A8BB0EE41BAA0
:102F9000F0EE61BA0B989DED0A0B20F00040B0F105
:102FA000795F0DDA51EC100BFFF71EFC042808BF07
:102FB00000F09AF89DED0A0BBDEC0A8B05B030BD10
:102FC00053EC102B51EC100B00F016FC41EC180BDD
:102FD0009DED0A0B53EC182B51EC100B00F00CFC80
:102FE00041EC190B2C48B0EE480AF0EE680A0521B6
:102FF0007844FFF749FF9FED2ACBB0EE40AAF0EEF0
:1030000060AA9CB353EC1C2B51EC190B00F0F4FBA1
:1030100041EC1C0B53EC1A2B51EC190B00F0ECFBA0
:103020009FED210B41EC190B53EC102B51EC1B0BBA
:1030300000F0E2FB53EC192B00F0E8FC53EC182BEA
:1030400000F0DAFB53EC1B2B00F0E0FC53EC1C2BE4
:1030500000F0DCFC9DED0A1B53EC112B00F0CAFCC8
:10306000BDEC0A8B05B041EC100B30BDFFE753EC13
:103070001A2B51EC180B00F0BFFB53EC1C2B00F08B
:1030800071F853EC192B00F0B7FB9DED0A1B53ECC4
:10309000112B00F067F8E3E76C0D00000000000062
:1030A000495555555555C5BF000000000000E03F8B
:1030B00010B553EC102B51EC100B00F053F841EC11
:1030C000100B10BD000000009FED050B10B553EC78
:1030D000102B51EC100B00F0F9F841EC100B10BD67
:1030E00000000000000000009FED050B10B553EC40
:1030F000102B51EC100B00F07FFB41EC100B10BDBE
:10310000000000000000001082B0CDE9000121F0B5
:10311000004001909DED000B02B051EC100B704788
:1031200010B500290AD00878002807D0054878444F
:10313000FDF7D2FC002801D0002010BD02487844E1
:1031400010BD0000260D00001E0D000081F00041A2
:10315000704780F00040704721F00041704720F038
:103160000040704710B591EA030F48BF83F0004359
:1031700000F15484841A71EB030C05D2121943EB4D
:103180000C03001B61EB0C014FEA1154A4EB135C20
:10319000DFF81CE11EEA430F18BF9EEA445F00F00F
:1031A000748021EA045123EA0E0343F48013DCF116
:1031B000200E32D322FA0CFE10EB0E0023FA0CFE86
:1031C00041EB0E01CCF1200E03FA0EFE10EB0E00C7
:1031D000CCF1200E51F10001B1F5801F32D201EB8C
:1031E000045112FA0EF2BDE8104058BF7047401C5F
:1031F00038BF5FEA420218BF7047002814BF20F0B2
:10320000010041F100014FEA410313F5001F38BFEF
:103210007047A1F1C04100F0E7BB012A43EB030274
:10322000ACF1200CDCF11F0E32BF4FF0000E23FA80
:103230000CF310EB030041EB0451B4EB115FD0D061
:10324000A1EB045101F58011490801EB04515FEA3B
:1032500030000ED350F1000038BF12FA0EFE08D134
:10326000BDE81040C9E7401C38BF5FEA4202CAD13E
:10327000C3E7BDE810404FEA410313F5001F38BF14
:103280007047A1F1C04100F0AFBB9EEA445F08D097
:1032900011EA5E0FBDE8104004BF01F000410020BC
:1032A0007047BDE8104070B500F050FB64FBBE3EB7
:1032B0000000E0FF491058BFC1F140415B1058BF0A
:1032C000C3F140438B42EFF3008070472DE9C041CA
:1032D00030B4DFF8A4C23CEA111418BF3CEA13145E
:1032E00000F0ED801CEA111481EA030544EAD5746C
:1032F00018BF1CEA131500F0C880A4EB050404F104
:103300007F7404F500344FF0004545EAC12145EAD9
:10331000C32341EA505143EA52534FEAC0204FEAD7
:10332000C222994208BF904200F09D804FEA136587
:103330000FF24416765D4FEA134506FB05F7C7F119
:10334000807706FB07F74FEAD737A7FB036876427B
:10335000A7FB06CEC8F5803838BFA8F1010807FBE7
:1033600008E6A6FB028C4FF0000EE6FB03CEDCF174
:10337000000CCEF1004E38BFAEF1010EA6FB0C588A
:103380004FF00007E6FB0E87A1FB08C6A0FB07CEA7
:1033900016EB0E064FF0000545F10005E1FB076551
:1033A00015F1E04E7EBFA4F580345FEA46066D411C
:1033B00016F1800745F100054FEA172747EA056730
:1033C0004FEA15254FEA0666A6F1DE46B6F1805FA4
:1033D00020D9384605EBC47124F0010C01EB0C1127
:1033E000BCF1FE6F02D8F0BCBDE8008124425CBF96
:1033F00001F5801E9EEAC47F02D4F0BCBDE80081C6
:10340000244200F13980A1F1C041F0BCBDE8004187
:1034100000F0EABA4FEAD02040EA41504FEAD12109
:103420004FEAD22242EA43524FEAD323A7FB028655
:1034300007FB036605FB02661EEA0E0F58BFA6EBEC
:103440000056B6EB00564FEA520E4EEAC37E18EB1A
:103450000E0E56EB530EBCD518EB02085E417F1CD6
:1034600055F10005B5E74FF480154FF000074FF018
:1034700000064FF00008ACE701F1C04101F0004147
:103480004FF00000F0BCBDE800810CEA131511EA12
:103490000C1F00D00CE013EA0C1F00F026804FF048
:1034A000000081EA030101F00041F0BCBDE80081A9
:1034B000F0BCBDE8004181EA030100F095BAF0BC20
:1034C000BDE8004170B500F041FA00BF097EFC3E46
:1034D00000F007B84FF0000081EA030101F000415D
:1034E000704781EA030100F07FBAF0BCBDE80041FB
:1034F00022494FF000007047FFFDFBF9F7F5F4F2A9
:10350000F0EEEDEBE9E8E6E4E3E1E0DEDDDBDAD87E
:10351000D7D5D4D3D1D0CFCDCCCBCAC8C7C6C5C4DC
:10352000C2C1C0BFBEBDBCBBBAB9B8B7B6B5B4B3F3
:10353000B2B1B0AFAEADACABAAA9A8A8A7A6A5A4DE
:10354000A3A3A2A1A09F9F9E9D9C9C9B9A999998A2
:103550009797969595949393929191908F8F8E8E45
:103560008D8C8C8B8B8A89898888878786858584D2
:1035700084838382828181800000FF070000F87FBE
:1035800051EA030C17D41CF5801F58BFBCF5801FEF
:1035900000F10680994218BF704708BF90427047FB
:1035A00007D711F5801F58BF13F5801F19D4994212
:1035B0007047894270471CF5801F08D5BCF5801FF5
:1035C000F7D58B4218BF704708BF824270474FF44F
:1035D000001C1CEB410F38BF1CEB430F01D28B4288
:1035E000704770B500F0B2F9922449004FF00051D5
:1035F0004FF08053FFF75EBE4FEA41034FEA53534B
:10360000A3F58063D3F11E03C8BFD3F1210C0CDDF9
:103610004FF0004242EAC12242EA505232FA03FC21
:103620008CEAE17CACEBE1707047102BC4BF00204A
:10363000704703F5787CBCF1FF3F04D06FF0004287
:1036400082EA2100704770B500F080F94992248029
:1036500000207047F2E700004FEA1153A3F58063A2
:10366000D3F11E03A8BFD3F1200C08DB4FF00042BA
:1036700042EAC12252EA505232FA03F0704709423C
:103680000BD4102BC4BF0020704703F5787CBCF12D
:10369000FF3F05D04FF0FF3070474FF000007047FC
:1036A00070B500F053F900BF4992248000207047A4
:1036B000F0E710F0004248BF4042B0FA80F310FA41
:1036C00003F10AD0C3F11D0303F5806302EB03523B
:1036D0004FEA415002EBD12170474FF00000704794
:1036E000B0FA80F310FA03F10AD0C3F11D0303F519
:1036F00080634FEA03524FEA415002EBD1217047F9
:103700004FF000007047000051EA030C17D41CF57D
:10371000801F58BFBCF5801F00F10680994218BF7A
:10372000704708BF9042704707D711F5801F58BFF8
:1037300013F5801F19D499427047894270471CF5D0
:10374000801F08D5BCF5801FF7D58B4218BF704786
:1037500008BF824270474FF4001C1CEB410F38BF7A
:103760001CEB430F01D28B42704770B500F0EEF8AE
:10377000922449004FF080514FF00053FFF79ABD5B
:1037800051EA030C17D41CF5801F58BFBCF5801FED
:1037900000F10680994218BF704708BF90427047F9
:1037A00007D711F5801F58BF13F5801F19D4994210
:1037B0007047894270471CF5801F08D5BCF5801FF3
:1037C000F7D58B4218BF704708BF824270474FF44D
:1037D000001C1CEB410F38BF1CEB430F01D28B4286
:1037E000704770B500F0B2F8922449004FF00051D4
:1037F0004FF08053FFF75EBD70B5DFF848C11CEA9B
:10380000111E1EBF1CEA13159EEA0C0F95EA0C0F41
:1038100000F06F8081EA03044EEAD47EAE4421EAD0
:103820004C1123EA4C1341F4801143F48013AEF1A0
:103830007F7EA1FB024CA0FB0365361955EB0C05FE
:10384000A1FB034C4CF10003A0FB021C16EB0C0681
:10385000654153F10003094218BF46F0010613F415
:10386000007F0BD14FEA03314FEA053041EA155191
:1038700040EA165034036FF003020AE04FEAC32116
:103880004FEAC52041EA555140EA5650F4026FF024
:10389000020202EB2E4201EB025585EACE710AD0FC
:1038A0005FEA440C18BF24F0004450F1000041F1DD
:1038B000000120EAD47040F2FE7C624500D270BD67
:1038C000A84214BF4FF080444FF04044002E08BF80
:1038D0000024BEF1806FA8BFA1F1C041BDE87040D7
:1038E00080F2828001F1C04101F000414FF0000000
:1038F00070470CEA13159EEA0C0F18BF95EA0C0FDF
:1039000006D081EA030E4FF000000EF0004170BDBA
:1039100000F01CF88900013E00F007B800F009B87B
:103920004FEA430C5FEA5C5C08D081EA030100F0D7
:103930005BB84FEA410C5FEA5C5CF6D102494FF09C
:10394000000070470000FF070000F87F0EF1020E34
:103950002EF0030E5EF8046B364205D4012A43EBC9
:10396000030515F5001F12D8012841EB010C1CF5C9
:10397000001F0CD80ED14FEAD17C0CEB4C0C0CF193
:10398000020C15F5001F08BF4CEBD37C04E04FF090
:10399000080C01E04FEAD37C0CEB4C0526FA05F647
:1039A00006F00706B6F1040C06D20EEB860CBDE855
:1039B00070404CF0010C6047DFE80CF0090B02028C
:1039C0004FF00041A1F500214FF0000070BD1946F5
:1039D0001046012851EB010418BFD4F5001484BF30
:1039E000002001F0004170BD0808A0F500114FEA69
:1039F0003101704710B591EA030F81F000413FF5A6
:103A0000B9AB83F0004300F009B8000010B591EAAB
:103A1000030F48BF83F000433FF5ACAB841A71EB52
:103A2000030C07D28CF0004C121943EB0C03001B63
:103A300061EB0C014FEA1154A4EB135CDFF8A4E135
:103A40001EEA430F18BF9EEA445F00F0B48021EAEB
:103A5000045123EA6E035242C3EB6E0338BF5B1E70
:103A6000DCF1200E25D322FA0CFE10EB0E0043FAF7
:103A70000CFE41EB0E01CCF1200E03FA0EFE10EB12
:103A80000E00CCF1200E51F1000129D401EB0451BC
:103A900012FA0EF2BDE8104058BF7047401C1CBF20
:103AA000B2F1004F704700280CBF491C20F0010004
:103AB000704712EB020E43EB030218BF4FF0010EEA
:103AC0004EEA4202ACF1200CDCF11E0E56D943FA4C
:103AD0000CFE10EB0E00CCF11E0E51F1FF31D5D5CE
:103AE0000EF1010E12FA0EFE404141EB010101EB15
:103AF000445C5FEA5C5C10D901EB045110EBDE70B2
:103B000038BFBEF1004FBDE8104018BF7047002815
:103B10000CBF491C20F00100704734D24FEAD42C6E
:103B200024F4006411F500111BD0B1FA81F20B3AB4
:103B3000A41AA41ED2F12003914030FA03F31943D2
:103B4000904001EBCC7101EB0451002CBDE810401A
:103B5000A8BF704701F1C04101F000414FF00000E3
:103B60007047B0FA80F310FA03F102D1BDE81040BB
:103B70007047E41A173C4805C90AE2E701EB045113
:103B8000BDE81040704749104FEA300001EB045186
:103B9000BDE8104002E04FF0000170474A0008BF46
:103BA0000042F8D0B2F5001F28BF704701F0004175
:103BB0004FF0000070479EEA445F07D011EA5E0FA5
:103BC000BDE8104004BF002100207047BDE8104050
:103BD00070B5FFF7BBFE00BF40DFF63E104683F036
:103BE000004170470000E0FF10B5FFF7C9FC0CBFB3
:103BF0000120002010BD10B5FFF7C2FC14BF01204A
:103C0000002010BD10B5FFF77FFD8CBF0120002004
:103C100010BD10B5FFF778FD2CBF0120002010BDAE
:103C200010B5FFF7ADFD94BF0120002010BD10B509
:103C3000FFF7A6FD34BF0120002010BDF1EE100AF1
:103C40004FF6FF71C0F2C03120EA010040F0407031
:103C5000E1EE100A7047FCF7BCBC00000000000059
:103C60004C5555555555A53F7751C1166CC156BF9A
:103C70009015CB19A001FA3EAD529C804F7E92BEAA
:103C8000C4B1B4BD9EEE213ED43888BEE9FAA8BDC9
:103C900000004054FB21F93F3163621A61B4D03D0A
:103CA0000000601A61B4D03D7370032E8A19A33BE3
:103CB0000000002E8A19A33BC14920259A837B3935
:103CC00000000000000000006E83F9A22915444E98
:103CD000D15727FCC0DD34F5999562DB4190433C18
:103CE000AB6351FE61C5BBDE3A6E24B7E0D24D42F4
:103CF000EA2E49061C92D1091CEB1DFE3EA729B1F4
:103D0000F53582E88444BB2E26709CE9417E5FB481
:103D100039D69139F43953838B5F849C3B28F9BDA4
:103D2000FF97F81F0F9805DE8B112FEF1F6D0A5AB2
:103D3000CF7E366DB709CB27663F464F2DEA5F9E93
:103D4000C7BA27757BF1E5EBF739073DEA92528A4E
:103D5000B15FFB6B085D8D1F46300356000000000D
:103D6000A6F810111111813FD561C119A0012ABF18
:103D70007DFEB157E31DC73EEB9C2B8AE6E55ABE9C
:103D80007CD5CF5A3AD9E53D02400000000000A0A2
:103D90000000000005400000000000C80000000016
:103DA0000C4000000000409C000000001940000092
:103DB0000020BCBE0000000034400000BFC91B8EC4
:103DC00000000004B5400000504BCFD06607E2CFA2
:103DD000010000006C4100003E8251AADFEEA734D2
:103DE00001000000D9420000DCB5A0E23A301F9784
:103DF000FFFFFFFFB4450000FD25A0C8E9A3C14FA8
:103E0000FFFFFFFFFF3F00000000008000000000F8
:103E1000FF3F0000000000800000000000000000E4
:103E2000000000000102030406070809000000006A
:103E300001020304703E0008000000201000000092
:103E400000020008803E0008100000200807000063
:103E50001C0200081C00000043000000F8FFFFFFE8
:103E60000C0000000E0000000F0000002E000000FB
:103E700001000000100000000024F4000000000019
:04000005080001C529
:00000001FF
