:020000040800F2
:100000001807002065020008E1130008A911000884
:10001000DD13000811040008F115000800000000BD
:10002000000000000000000000000000E9130008CC
:100030001504000800000000E5130008ED13000897
:100040007F0200087F0200087F0200087F0200088C
:100050007F0200087F0200087F0200087F0200087C
:100060007F0200087F0200087F0200087F0200086C
:100070007F0200087F0200087F0200087F0200085C
:100080007F0200087F0200087F0200087F0200084C
:100090007F0200087F0200087F0200087F0200083C
:1000A0007F0200087F0200087F0200087F0200082C
:1000B0007F0200087F0200087F0200087F0200081C
:1000C0007F0200087F0200087F0200087F0200080C
:1000D0007F0200087F0200087F0200087F020008FC
:1000E000190400087F0200087F0200087F02000850
:1000F0007F0200087F0200087F0200087F020008DC
:100100007F0200087F0200087F0200087F020008CB
:100110007F0200087F0200087F0200087F020008BB
:100120007F0200087F0200087F0200087F020008AB
:100130007F02000800000000000000007F020008AD
:100140007F0200087F0200087F0200087F0200088B
:100150007F0200087F0200087F0200087F0200087B
:100160007F0200087F0200087F0200087F0200086B
:100170007F0200087F0200087F02000800000000E4
:10018000000000007F0200080000000000000000E6
:100190007F02000800000000000000007F0200084D
:1001A0000000000000000000000000007F020008C6
:1001B0007F0200087F0200087F0200087F0200081B
:1001C0007F02000800F002F800F03CF80AA090E876
:1001D000000C82448344AAF10107DA4501D100F002
:1001E00031F8AFF2090EBAE80F0013F0010F18BF93
:1001F000FB1A43F00103184760140000801400004C
:10020000103A24BF78C878C1FAD8520724BF30C842
:1002100030C144BF04680C60704700000023002414
:1002200000250026103A28BF78C1FBD8520728BF06
:1002300030C148BF0B6070471FB501F0F4F91FBD16
:1002400010B510BD00F0A9F81146FFF7F5FF01F059
:10025000D1F900F0C7F803B4FFF7F2FF03BC00F0D8
:10026000CFF800000948804709480047FEE7FEE74D
:10027000FEE7FEE7FEE7FEE7FEE7FEE7FEE7FEE756
:1002800004480549054A064B70470000A1140008C0
:10029000C5010008180100201807002018030020DD
:1002A0001803002053EA020C00F069802DE9F04B9E
:1002B0004FF00006002B1FBFB3FA83F503FA05F4D5
:1002C00024FA05F65E4012BF1643B2FA82F502FA2E
:1002D00005F4C5F120051EBF22FA05FC44EA0C0412
:1002E000203556EA044C4FEA144418BF641C4FF002
:1002F00000084FF00009904271EB030C39D300293C
:1003000019BFB1FA81F701FA07F6B0FA80F700FADF
:1003100007F6C7F120071EBF20FA07FC46EA0C06C5
:100320002037B6FBF4FCA7EB0507103F07F01F0BC7
:10033000CBF120062CFA06F60CFA0BFB44BFB346B1
:100340000026202FA4BF5E464FF0000B5BEA060C90
:1003500008BF4FF0010B19EB0B0948EB0608ABFB8C
:10036000027C06FB02CC0BFB03CCC01B71EB0C0127
:10037000C1E70B46024641464846BDE8F08B13B53F
:10038000084318BF4FF0FF300146AFF30080BDE8CF
:100390001C407047704770477047754600F02CF856
:1003A000AE4605006946534620F00700854618B062
:1003B00020B5FFF765FFBDE820404FF000064FF085
:1003C00000074FF000084FF0000BAC46ACE8C00946
:1003D000ACE8C009ACE8C009ACE8C00921F00701ED
:1003E0008D46704710B50446AFF300802046BDE847
:1003F0001040FFF730BF0000004870471000002099
:1004000001491820ABBEFEE726000200704700003D
:10041000FEE70000704700004FF4005000F082B883
:1004200010B54379012B4FF002031DD0037103680F
:1004300002F0100ED3F800C0D1E9004140F6FE7280
:1004400002FA0EF221432CEA020201FA0EF11143E4
:100450001960C0211A6801FA0EF122EA010119603F
:100460000121002301714371184610BD002804BF0B
:100470000120704710B50446007920B90020607152
:10048000204600F007F802202071002001212061A1
:10049000217110BD80B586B047F200410068C4F2FA
:1004A0000001002288420592049201D006B080BD6E
:1004B00043F630000092C4F20200036943F0005397
:1004C0000361036903F000530093009B00920368EB
:1004D00043F001030360006800F001000090009801
:1004E000102001900320CDE9020201F5C63001A9D8
:1004F00000F024F806B080BDB0B5044600F00AF95B
:10050000054640F20000C2F200000078611C18BFEE
:10051000044400BF00F0FEF8401BA042FAD3B0BD77
:100520007047000043F61441C4F201010A68024218
:1005300014BF08607047FFF7F3BF00002DE9F04FCC
:1005400082B000F13E4241F6000502F1FF77C4F2AD
:10055000020507224FEAB726A84208BF0622062E48
:1005600038BF4FEAB7224FF0010A002400274FF0AE
:100570000008009208E000BF023708F10108202FB0
:1005800004F1040400F0B4800E680AFA08F916EACF
:10059000090FF1D0D1F804A00AF0030BABF101066A
:1005A000012E17D80322866802FA07FECA6826EAD7
:1005B0000E06BA40324382604268CAF3001522EA4E
:1005C000090205FA08F54FEA480C6FEA0E062A43BD
:1005D00042600BE00322BA40D643BBF1030FBC4696
:1005E00004D1BC464FF0030B22E000BFC2688D6807
:1005F000324005FA0CF52A43BBF1020FC26017D155
:100600006FF0030202EA5802024404F01C030F25B3
:10061000D2F820E005FA03FA0D692EEA0A0E05FA6F
:1006200003F343EA0E031362D1F804A00AF0030BAC
:1006300002680BFA0CF332401A431AF4403F4FF0B1
:10064000010A026098D0002243F644030192C4F2EA
:1006500002031A6843F6004E42F480421A601A6898
:10066000C4F2010E02F480420192019A28F00302C2
:100670004FF6084C7244CFF6FF7C52F80C3004F071
:100680000C060F25B540AB43009D05FA06F6334333
:1006900042F80C30DEF808204B6842EA090643F6BF
:1006A0000C4CDD0258BF22EA0906CEF80860C4F2FD
:1006B000010CDCF800209D0242EA090658BF22EA3C
:1006C0000906CCF80060DEF804209D0342EA090622
:1006D00058BF22EA0906CEF80460DEF80020DB03EA
:1006E00042EA090658BF22EA0906CEF8006043E74D
:1006F00002B0BDE8F08F0000426902EA01039143B5
:1007000041EA034181617047002A08BF0904816101
:100710007047000040F21010C2F2000000687047FD
:1007200040F2000040F21011C2F20000C2F20001DB
:1007300000780A68104408607047000080B543F6EE
:100740000040C4F20200016841F4007101600168D8
:1007500041F480610160016841F48071016003200F
:1007600000F084F8002000F005F800F027F80020E1
:1007700080BD000070B540F20006C2F2000640F2F3
:1007800008013278C2F200014FF47A730968B3FBB2
:10079000F2F20446B1FBF2F1084600F079FB0F2CAF
:1007A0004FF0010508D838B94FF0FF30214600223C
:1007B000002500F02FF87460284670BD82B000203C
:1007C00043F640010190C4F202014A6842F48042BB
:1007D0004A604A6802F480420192019A00900868D7
:1007E00040F080500860086800F080500090009849
:1007F00002B07047002848BF704700F01F01012277
:1008000002FA01F14EF200124009CEF2000242F863
:100810002010704710B54EF60C5CCEF2000CDCF8E0
:100820000030C3F3022E8EF00704042C28BF0424EA
:10083000BEF103034FF0FF3E0EFA04F438BF00236D
:10084000A14399400EFA03F39A43114300F00F02BB
:10085000043A624409010C3200F16043B0F1FF3FF9
:10086000C8BF03F56442117010BD00004EF60C5174
:10087000CEF200010A684FF6FF031A4060F30A2225
:1008800042F0806040F0FD70086070472DE9F04153
:10089000002800F08B8043F60808C4F202080446E2
:1008A000D8F8F8030D4600F00F00884207D288F808
:1008B000F853D8F8F80300F00F00A84276D120686A
:1008C000810717D5410705D5D8F8001041F4E0514C
:1008D000C8F80010010705D5D8F8001041F46041B0
:1008E000C8F80010D8F80010A26821F0F0011143F8
:1008F000C8F80010C0073FD1D8F8F80300F00F0087
:10090000A84207D988F8F853D8F8F80300F00F0088
:10091000A8424BD12068410707D5D8F80010E268FB
:1009200021F4E0511143C8F80010000708D5D8F8A9
:100930000000216920F4604040EAC100C8F80000CE
:1009400000F07CF8D8F8001041F24062C1F30311C6
:10095000C0F60002515C40F2080220FA01F140F2B8
:100960000400C2F200000068C2F200021160FFF74A
:1009700001FF0020BDE8F0816068811E022907D2D6
:1009800058F8081C89015CBF0120BDE8F08111E026
:10099000012807D158F8081C89035CBF0120BDE875
:1009A000F08107E058F8081C890703D40120BDE84E
:1009B000F08100BFD8F8001021F003010843C8F807
:1009C0000000FFF7A7FE064641F28837D8F800007E
:1009D000616800F00C00B0EB810F8DD0FFF79AFE3C
:1009E000801BB842F2D90320BDE8F08140F2080034
:1009F00043F60801C2F20000C4F20201006809686F
:100A000041F25062C1F38221C0F60002515CC8403D
:100A10007047000040F2080043F60801C2F20000EF
:100A2000C4F202010068096841F25062C1F3423128
:100A3000C0F60002515CC8407047000010B543F694
:100A40000404C4F202046068C0F3810142F2004071
:100A5000C0F2F400DFE801F04402081841F200207F
:100A6000C0F27A0010BD00BF216801F03F0221688A
:100A700023684902C3F3881116D4A1FB00010023A7
:100A8000FFF710FC17E000BF216801F03F0221686A
:100A900023684902C3F3881116D4A1FB0001002387
:100AA000FFF700FC17E000BF41F20020C0F27A001F
:100AB0004843B0FBF2F021680222C1F3014102EB8E
:100AC0004101B0FBF1F010BD41F20020C0F27A000C
:100AD0004843B0FBF2F02168C1F30271B0FBF1F0C2
:100AE00010BD00002DE9F04182B0002800F0968092
:100AF0000446007843F60006C007C4F202062BD075
:100B0000B06800F00C00042820D0B06800F00C00A1
:100B1000082802D17068400218D4B06800F00C00B8
:100B20000C2802D17068400210D46068B0F5803F94
:100B300007D0B0F5A02F40F03B81306840F4802012
:100B40003060306840F4803030603BE130688003D2
:100B500002D56068002861D02078800722D5B0686F
:100B600010F00C0F11D0B06800F00C00082802D172
:100B70007068400209D5B06800F00C000C2840F005
:100B80009F807068400200F19B803068800702D52A
:100B9000E068012842D13068216920F0F80040EA7D
:100BA000C1003060207800073CD42078400751D441
:100BB000A5698DB3B06800F00C00082840F0A8804B
:100BC000012D2BD07068E16900F480028A4225D1A2
:100BD000216A00F03F028A4220D147F6C071626A62
:100BE0000140B1EB821F19D1A26A0023CFF6FF7337
:100BF00003EBC23200F440316FF30F0291420DD18A
:100C0000E16A00F07062B2EB016F07D1216B00F076
:100C1000E040B0EB017F01D1002035E1012002B0BE
:100C2000BDE8F0816069002840F20000C4F247206E
:100C30005ED00121C0F8801EFFF76CFD054600BFA5
:100C4000706F8007B1D4FFF765FD401B0228F7D90C
:100C5000C5E000BF306C10F080580AD10020019030
:100C6000306C40F080503064306C00F08050019067
:100C7000019847F20007C4F200073868C00511D494
:100C8000386840F480703860FFF744FD054600BFC7
:100C90003868C00506D4FFF73DFD401B0228F7D990
:100CA0009DE000BFA068012805D0052852D1306F13
:100CB00040F004003067306F40F00100306753E0CF
:100CC000E068002860D00020C4F2472001210160C4
:100CD000FFF720FD054600BF306880073FF55BAF9A
:100CE000FFF718FD401B02284FF00300F4D9CBE0BA
:100CF0000021C0F8801EFFF70DFD0546706F8007CC
:100D00007FF553AFFFF706FD401B0228F6D966E0DA
:100D10000027C4F2472700203866FFF7FBFC022DAE
:100D200005460BD1306880015ED5FFF7F3FC401B10
:100D300002284FF00300F5D9A6E000BF306880011B
:100D40007FF56AAFFFF7E6FC401B02284FF0030077
:100D5000F4D999E0316F002821F001013167316F3A
:100D600021F00401316765D0FFF7D4FC054641F25C
:100D7000883700BF306F80076ED4FFF7CBFC401B75
:100D8000B842F7D92BE000BF0020C4F24720002171
:100D90000160FFF7BFFC0546306880077FF502AFB2
:100DA000FFF7B8FC401B02284FF00300F4D96BE0BA
:100DB0003168002821F480313160316821F48021CC
:100DC000316053D0FFF7A6FC054600BF30688003B2
:100DD0003FF5C2AEFFF79EFC401B6428F6D9032006
:100DE00002B0BDE8F08100BF04F11C052FCD246BDB
:100DF00008430021CFF6FF7140EA821001EBC331B6
:100E00006FF30F0140EA0560084340EA0470706028
:100E100001203866FFF77EFC044600BF3068800181
:100E20003FF5FAAEFFF776FC001B02284FF00300F7
:100E3000F4D929E0FFF76EFC054641F2883700BF80
:100E4000306F800708D5FFF765FC401BB8424FF0B4
:100E50000300F5D918E000BFB8F1000F7FF4A8AE89
:100E6000306C20F080503064A2E600BFFFF752FCE7
:100E70000546306880037FF56FAEFFF74BFC401BE3
:100E800064284FF00300F4D902B0BDE8F0810000FF
:100E9000411E0020B0EB116F1CBF012070474EF2C5
:100EA0001002CEF2000251604EF62351CEF2000144
:100EB000F0230B70072190601160704710B590F817
:100EC0003C20012A4FF0020251D080F83D200268F8
:100ED000D2F804E0D2F808C00C682EF07003234367
:100EE00041F2FF74C4F20004A24253600EDC40F2EF
:100EF000FF73C4F200039A4216DCB2F1804F2BD08C
:100F000040F20043C4F2000324E000BF40F2FF338C
:100F1000C4F201039A4213DC41F60003C4F2000359
:100F20009A4219D0002313E040F60003C4F20003F4
:100F30009A4211D040F60043C4F200030AE000BF19
:100F400044F20003C4F201039A4205D040F2004388
:100F5000C4F201039A4204D149682CF0800319437A
:100F600091600121002280F83D1080F83C2010465D
:100F700010BD0000002804BF0120704710B50446D2
:100F800090F83D0028B9002084F83C00204600F08D
:100F90001FF8022084F83D002068211D00F08AFA25
:100FA000012084F8460084F83E0084F83F0084F86D
:100FB000400084F8410084F8420084F8430084F83B
:100FC000440084F8450084F83D00002010BD000076
:100FD00081B0006841F20001C4F20001884201D0F2
:100FE00001B070470020009043F64000C4F20200B8
:100FF000016841F010010160006800F010000090ED
:10100000009801B070470000002804BF012070471D
:1010100070B5044690F83D0028B9002084F83C00E3
:10102000204600F06DF8022084F83D002068D4E9E5
:1010300002C2D4F810E0C56804F1180625F00C05CA
:10104000C56005694ACE25F47C55294319433143CF
:10105000114341F400610161C16849F20C6291439E
:10106000626941EA0C0141EA0E01114341F4004179
:10107000C160416941F2004340F48062C4F201035F
:1010800021F440719A42416102D1FFF7C3FC01E0B3
:10109000FFF7ACFCD4E900531921A0FB01015A0071
:1010A000DB0FFFF7FFF848F21F51C5F2EB11A0FB71
:1010B00001235A096FF0630302FB0300322303EBA1
:1010C000C000A0FB01014FF4F87000EA111000EB22
:1010D0000210C1F342110844A8602869012120F4DC
:1010E00080402861686920F02A006861E86840F45F
:1010F0000050E8600020206484F83D1070BD0000BE
:101100002DE9F04385B0006844F60005C4F20005FF
:10111000A84203D005B0BDE8F08300BF002643F627
:1011200030000096C4F2020001696C4641F480214F
:10113000016101694FF0020801F4802100910099DA
:10114000009601684FF0030941F002010160016857
:10115000072701F00201009100990096016841F013
:10116000080101600068214600F008000090009826
:101170004FF48050009005F5DE30CDE90186CDF8C2
:101180000C900497FFF7DAF94FF44070CDE90008AE
:1011900005F5E2302146CDE902690497FFF7CEF963
:1011A00005B0BDE8F0830000FEE7000080B582B026
:1011B0000020CDE9000040F2700047F20041C2F289
:1011C0000000C4F200010160FFF750F920B1EFF315
:1011D000108072B6FEE700BF40F27000C2F200005D
:1011E00069460022FFF71CF920B1EFF3108072B6B8
:1011F000FEE700BF02B080BD2DE9F04786B00027B2
:1012000043F63000CDE904770097C4F2020001688C
:1012100041F6000A41F0040101600168C4F2020ACB
:1012200001F004010091009900970168AAF5A05609
:1012300041F0800101600168002201F0800100910D
:1012400000990097016844F2810841F001010160B2
:10125000016801F00101009100990097016841F0D7
:1012600002010160016801F00201009100990097FC
:10127000016841F008010160016801F00801009176
:1012800000990097016841F040010160006844F254
:10129000810100F04000009000983046FFF734FADA
:1012A0005046402100224FF04009FFF72DFA4FF43D
:1012B000005001904FF4881001ADCDE90207AAF566
:1012C00080502946FFF73AF9012430462946CDF8E7
:1012D0000480CDE902470497FFF730F950462946CC
:1012E000CDE90194CDE90377FFF728F98020CDE916
:1012F0000107504629460397FFF720F94FF4E850BD
:1013000001900220CDE90207032004900A20AAF5EB
:10131000C054059020462946FFF710F94FF400709D
:10132000CDE90107204629460397FFF707F9282052
:1013300000210022FFF76EFA2820FFF75BFA06B0C3
:10134000BDE8F08780B582B040F2840041F200022F
:101350000021C2F20000C4F200024FF6FF73CDE993
:101360000011C0E90021C0E902138161FFF702FE0C
:1013700020B1EFF3108072B6FEE700BF40F28400A8
:10138000C2F200006946FFF799FD28B1EFF3108023
:1013900072B600BFFEE700BF02B080BD80B540F26C
:1013A000CC0044F60001C2F20000C4F200010023A8
:1013B0004FF00C0C4FF4E13280E80E00C0E903332B
:1013C000C0E905C3C0E90733FFF71EFE002808BFC8
:1013D00080BDEFF3108072B6FEE70000FEE700006C
:1013E000FEE700007047000070470000FFF798B963
:1013F000B0B594B0002443F640000C94CDE90A4403
:10140000CDE908440694CDE90444CDE902440194B1
:10141000C4F202000168012241F0805101600068BD
:10142000022500F080500190019847F200000194DD
:10143000C4F20000016862F38F310160006800F4BB
:1014400040400190019810200B9008200F906420DC
:10145000CDE9100507A807950A92CDE90D54CDE90D
:101460001255FFF73FFB28B1EFF3108072B600BFB3
:10147000FEE700BF0F20CDE902054FF4A050059014
:101480004FF48050069002A803210494FFF7FEF960
:1014900020B1EFF3108072B6FEE700BF14B0B0BD0C
:1014A0004EF68850CEF20000016841F470010160F0
:1014B0007047000010B540F6FF3E0368C4F2000E0E
:1014C00040F2004C7045C4F2010C27DCB0F1804FB3
:1014D00031D040F20042C4F2000290422BD040F6DC
:1014E0000002C4F20002904225D041F6FF72C4F21D
:1014F0000002904229DC70453CDCB0F1804F5FD0A7
:1015000040F20042C4F20002904259D040F600027C
:10151000C4F20002904253D056E000BF40F60042B1
:10152000C4F20002904206D0604504D00022C4F20A
:1015300001029042D9D14A6823F07003134341F667
:10154000FF72C4F200029042D5DD43F6FF72C4F28E
:101550000102904222DC42F20002C4F200029042F8
:101560002ED00022C4F20102904229D0604527D03B
:101570002AE000BF40F60042C4F2000290421FD0B1
:1015800041F60002C4F20002904219D041F6004236
:10159000C4F20002904213D016E000BF44F20002F1
:1015A000C4F2010290420BD044F60002C4F20102E0
:1015B000904205D044F20042C4F20102904203D1AD
:1015C000CA6823F44073134323F080024B69D1F8B7
:1015D00000E08C681A430260C46240F48062C0F884
:1015E00028E0624504BF096901630121416110BD22
:1015F000FEE70000FFF7A2F8FFF7FAFEFFF7FCFD99
:10160000FFF7D4FDFFF79EFEFFF7C8FE40F200444F
:10161000C4F2020420468021FFF76EF84FF4FA70FE
:10162000FEF76AFFF6E7F1EE100A4FF6FF71C0F21F
:10163000C03120EA010040F04070E1EE100A70472E
:101640000000000000000000010203040607080972
:1016500000000000010203047816000800000020CA
:10166000100000000002000888160008100000208A
:10167000080700001C020008010000001000000024
:081680000024F400000000004A
:04000005080001C529
:00000001FF
